{
  "contractName": "HelloWorld",
  "abi": [
    {
      "inputs": [],
      "payable": false,
      "stateMutability": "nonpayable",
      "type": "constructor",
      "signature": "constructor"
    },
    {
      "payable": true,
      "stateMutability": "payable",
      "type": "fallback"
    },
    {
      "constant": false,
      "inputs": [],
      "name": "add",
      "outputs": [],
      "payable": false,
      "stateMutability": "nonpayable",
      "type": "function",
      "signature": "0x4f2be91f"
    },
    {
      "constant": false,
      "inputs": [],
      "name": "subtract",
      "outputs": [],
      "payable": false,
      "stateMutability": "nonpayable",
      "type": "function",
      "signature": "0x6deebae3"
    },
    {
      "constant": true,
      "inputs": [],
      "name": "getCounter",
      "outputs": [
        {
          "name": "",
          "type": "uint256"
        }
      ],
      "payable": false,
      "stateMutability": "view",
      "type": "function",
      "signature": "0x8ada066e"
    },
    {
      "constant": false,
      "inputs": [],
      "name": "kill",
      "outputs": [],
      "payable": false,
      "stateMutability": "nonpayable",
      "type": "function",
      "signature": "0x41c0e1b5"
    }
  ],
  "bytecode": "0x6080604052600560005534801561001557600080fd5b5033600160006101000a81548173ffffffffffffffffffffffffffffffffffffffff021916908373ffffffffffffffffffffffffffffffffffffffff160217905550610256806100666000396000f3fe608060405260043610610062576000357c0100000000000000000000000000000000000000000000000000000000900463ffffffff16806341c0e1b5146100645780634f2be91f1461007b5780636deebae3146100925780638ada066e146100a9575b005b34801561007057600080fd5b506100796100d4565b005b34801561008757600080fd5b506100906101fa565b005b34801561009e57600080fd5b506100a761020d565b005b3480156100b557600080fd5b506100be610221565b6040518082815260200191505060405180910390f35b600160009054906101000a900473ffffffffffffffffffffffffffffffffffffffff1673ffffffffffffffffffffffffffffffffffffffff163373ffffffffffffffffffffffffffffffffffffffff161415156101bf576040517f08c379a00000000000000000000000000000000000000000000000000000000081526004018080602001828103825260228152602001807f4f6e6c79206f776e65722063616e2063616c6c20746869732066756e6374696f81526020017f6e2e00000000000000000000000000000000000000000000000000000000000081525060400191505060405180910390fd5b600160009054906101000a900473ffffffffffffffffffffffffffffffffffffffff1673ffffffffffffffffffffffffffffffffffffffff16ff5b6000808154809291906001019190505550565b600080815480929190600190039190505550565b6000805490509056fea165627a7a723058202e5a794b21477386d321ae310bd25473561dad3b79f224efc0dcb2df5c220f140029",
  "source": "pragma solidity ^0.5.0;\r\n\r\ncontract HelloWorld {\r\n\r\n    uint256 counter = 5; //state variable we assigned earlier\r\n    address payable owner; //set owner as msg.sender\r\n\r\n    constructor() public {owner = msg.sender;}\r\n\r\n    // This contract only defines a modifier but does not use\r\n    // it: it will be used in derived contracts.\r\n    // The function body is inserted where the special symbol\r\n    // `_;` in the definition of a modifier appears.\r\n    // This means that if the owner calls this function, the\r\n    // function is executed and otherwise, an exception is\r\n    // thrown.\r\n    modifier onlyowner {\r\n        require(\r\n            msg.sender == owner,\r\n            \"Only owner can call this function.\"\r\n        );\r\n        _;\r\n    }\r\n\r\n    function add() public {//increases counter by 1\r\n        counter++;\r\n    }\r\n\r\n    function subtract() public {//decreases counter by 1\r\n        counter--;\r\n    }\r\n\r\n    function getCounter() public view returns (uint256) {\r\n        return counter;\r\n    }\r\n\r\n    function kill() public onlyowner {//self-destruct function,\r\n        //        if (msg.sender == owner) {\r\n        selfdestruct(owner);\r\n        //        }\r\n    }\r\n\r\n    function() external payable {\r\n\r\n    }\r\n}",
  "sourcePath": "C:/Users/Damian/IdeaProjects/ethereum-blockchain-dapp/contracts/HelloWorld.sol",
  "compiler": {
    "name": "solc",
    "version": "0.5.0+commit.1d4f565a.Emscripten.clang"
  },
  "schemaVersion": "3.0.1",
  "updatedAt": "2019-01-28T20:42:19.942Z",
  "devdoc": {
    "methods": {}
  },
  "userdoc": {
    "methods": {}
  }
}